{
  "transactions": [
    {
      "hash": "0x56a7c2f24983a96b7ab0e6a635bd6e8e9638011ea9ec79389dcce21ac591f66e",
      "transactionType": "CALL",
      "contractName": null,
      "contractAddress": "0x7f7f8833212158d50722dda49d2d794b583b8f6b",
      "function": "mint(address,string)",
      "arguments": [
        "0x63e42Efbc0EAB83cFFc1A6fB3f6953F1C221EcA1",
        "\"https://example.com/nft/1\""
      ],
      "transaction": {
        "from": "0x63e42efbc0eab83cffc1a6fb3f6953f1c221eca1",
        "to": "0x7f7f8833212158d50722dda49d2d794b583b8f6b",
        "gas": "0x31a31",
        "value": "0x0",
        "input": "0xd0def52100000000000000000000000063e42efbc0eab83cffc1a6fb3f6953f1c221eca10000000000000000000000000000000000000000000000000000000000000040000000000000000000000000000000000000000000000000000000000000001968747470733a2f2f6578616d706c652e636f6d2f6e66742f3100000000000000",
        "nonce": "0x20",
        "chainId": "0x4ed79c"
      },
      "additionalContracts": [],
      "isFixedGasLimit": false
    },
    {
      "hash": "0x4b374a8a6f43ff1e819970915415156d08f1ebfe68460cd7b2c66d91e6440fa5",
      "transactionType": "CALL",
      "contractName": null,
      "contractAddress": "0x7f7f8833212158d50722dda49d2d794b583b8f6b",
      "function": "updateMileage(uint256,uint256)",
      "arguments": [
        "0",
        "15000"
      ],
      "transaction": {
        "from": "0x63e42efbc0eab83cffc1a6fb3f6953f1c221eca1",
        "to": "0x7f7f8833212158d50722dda49d2d794b583b8f6b",
        "gas": "0x10fa1",
        "value": "0x0",
        "input": "0xc983154100000000000000000000000000000000000000000000000000000000000000000000000000000000000000000000000000000000000000000000000000003a98",
        "nonce": "0x21",
        "chainId": "0x4ed79c"
      },
      "additionalContracts": [],
      "isFixedGasLimit": false
    },
    {
      "hash": "0xcef5e90100995541d39b006b636f4a5d3343a3a3aafecb7f9d5d994d85aaf52d",
      "transactionType": "CALL",
      "contractName": null,
      "contractAddress": "0x7f7f8833212158d50722dda49d2d794b583b8f6b",
      "function": "addServiceRecord(uint256,uint256,uint256,string)",
      "arguments": [
        "0",
        "10000",
        "1719837456",
        "\"Oelwechsel\""
      ],
      "transaction": {
        "from": "0x63e42efbc0eab83cffc1a6fb3f6953f1c221eca1",
        "to": "0x7f7f8833212158d50722dda49d2d794b583b8f6b",
        "gas": "0x29ae9",
        "value": "0x0",
        "input": "0xe1659e9500000000000000000000000000000000000000000000000000000000000000000000000000000000000000000000000000000000000000000000000000002710000000000000000000000000000000000000000000000000000000006682a3100000000000000000000000000000000000000000000000000000000000000080000000000000000000000000000000000000000000000000000000000000000a4f656c7765636873656c00000000000000000000000000000000000000000000",
        "nonce": "0x22",
        "chainId": "0x4ed79c"
      },
      "additionalContracts": [],
      "isFixedGasLimit": false
    },
    {
      "hash": "0xb1e932ebf5b61d252fc428bc865c6183d91ae209c5c1e63d151573a521c2825d",
      "transactionType": "CALL",
      "contractName": null,
      "contractAddress": "0x7f7f8833212158d50722dda49d2d794b583b8f6b",
      "function": "addAccidentRecord(uint256,uint256,uint256,string)",
      "arguments": [
        "0",
        "12000",
        "1719837456",
        "\"Kleiner Unfall hinten links\""
      ],
      "transaction": {
        "from": "0x63e42efbc0eab83cffc1a6fb3f6953f1c221eca1",
        "to": "0x7f7f8833212158d50722dda49d2d794b583b8f6b",
        "gas": "0x29c55",
        "value": "0x0",
        "input": "0x7a736d3100000000000000000000000000000000000000000000000000000000000000000000000000000000000000000000000000000000000000000000000000002ee0000000000000000000000000000000000000000000000000000000006682a3100000000000000000000000000000000000000000000000000000000000000080000000000000000000000000000000000000000000000000000000000000001b4b6c65696e657220556e66616c6c2068696e74656e206c696e6b730000000000",
        "nonce": "0x23",
        "chainId": "0x4ed79c"
      },
      "additionalContracts": [],
      "isFixedGasLimit": false
    }
  ],
  "receipts": [
    {
      "status": "0x1",
      "cumulativeGasUsed": "0x9f981",
      "logs": [
        {
          "address": "0x7f7f8833212158d50722dda49d2d794b583b8f6b",
          "topics": [
            "0xddf252ad1be2c89b69c2b068fc378daa952ba7f163c4a11628f55a4df523b3ef",
            "0x0000000000000000000000000000000000000000000000000000000000000000",
            "0x00000000000000000000000063e42efbc0eab83cffc1a6fb3f6953f1c221eca1",
            "0x0000000000000000000000000000000000000000000000000000000000000000"
          ],
          "data": "0x",
          "blockHash": "0x19d45f6c265e6802244f4b2c1f174b62ba63a7aa378bcdf7cfaf12af04297b93",
          "blockNumber": "0x5f0b5",
          "transactionHash": "0x56a7c2f24983a96b7ab0e6a635bd6e8e9638011ea9ec79389dcce21ac591f66e",
          "transactionIndex": "0x3",
          "logIndex": "0x4",
          "removed": false
        },
        {
          "address": "0x7f7f8833212158d50722dda49d2d794b583b8f6b",
          "topics": [
            "0xf8e1a15aba9398e019f0b49df1a4fde98ee17ae345cb5f6b5e2c27f5033e8ce7"
          ],
          "data": "0x0000000000000000000000000000000000000000000000000000000000000000",
          "blockHash": "0x19d45f6c265e6802244f4b2c1f174b62ba63a7aa378bcdf7cfaf12af04297b93",
          "blockNumber": "0x5f0b5",
          "transactionHash": "0x56a7c2f24983a96b7ab0e6a635bd6e8e9638011ea9ec79389dcce21ac591f66e",
          "transactionIndex": "0x3",
          "logIndex": "0x5",
          "removed": false
        }
      ],
      "logsBloom": "0x00000000000000000000000000000000000000000000000000000000000000000000000000000000000000000000000000000000000000000000000000000000000000000000000000000008000000000000000000000000000000000000000000000000020000000000000000000880000000000000000000000010000000000000000000000000000000000000000000000000000000000000000000000000000000000000000000000000000000002000000000000000000000000000808000008002000000000000000020000000000000000000000000000004000020000000001000000000200000000000000000000000000000000000000000000000",
      "type": "0x2",
      "transactionHash": "0x56a7c2f24983a96b7ab0e6a635bd6e8e9638011ea9ec79389dcce21ac591f66e",
      "transactionIndex": "0x3",
      "blockHash": "0x19d45f6c265e6802244f4b2c1f174b62ba63a7aa378bcdf7cfaf12af04297b93",
      "blockNumber": "0x5f0b5",
      "gasUsed": "0x21f0a",
      "effectiveGasPrice": "0x12d0000009a01",
      "from": "0x63e42efbc0eab83cffc1a6fb3f6953f1c221eca1",
      "to": "0x7f7f8833212158d50722dda49d2d794b583b8f6b",
      "contractAddress": null
    },
    {
      "status": "0x1",
      "cumulativeGasUsed": "0xab33c",
      "logs": [
        {
          "address": "0x7f7f8833212158d50722dda49d2d794b583b8f6b",
          "topics": [
            "0x691c2e15c50ff39e88718f62e3e681d95d969a004164248dc6a374d5d46eb432"
          ],
          "data": "0x00000000000000000000000000000000000000000000000000000000000000000000000000000000000000000000000000000000000000000000000000003a98",
          "blockHash": "0x19d45f6c265e6802244f4b2c1f174b62ba63a7aa378bcdf7cfaf12af04297b93",
          "blockNumber": "0x5f0b5",
          "transactionHash": "0x4b374a8a6f43ff1e819970915415156d08f1ebfe68460cd7b2c66d91e6440fa5",
          "transactionIndex": "0x4",
          "logIndex": "0x6",
          "removed": false
        }
      ],
      "logsBloom": "0x00000000000000000000000000000000000000000000000000000000000000000000000000000000000000000000000000000000000000000000000000000000000000000000000000000000000000000000000000000000000000000000000000000000000020000000000000000080000000000000000000000000000000000000000000000000000000000000000000000800000000000000000000000000000000000000040000000000000000000000000000000000000000000000000000008000000000000000000000000000000000000000000000000000000000000000001000000000000000000000000000000000000000000000000000000000",
      "type": "0x2",
      "transactionHash": "0x4b374a8a6f43ff1e819970915415156d08f1ebfe68460cd7b2c66d91e6440fa5",
      "transactionIndex": "0x4",
      "blockHash": "0x19d45f6c265e6802244f4b2c1f174b62ba63a7aa378bcdf7cfaf12af04297b93",
      "blockNumber": "0x5f0b5",
      "gasUsed": "0xb9bb",
      "effectiveGasPrice": "0x12d0000009a01",
      "from": "0x63e42efbc0eab83cffc1a6fb3f6953f1c221eca1",
      "to": "0x7f7f8833212158d50722dda49d2d794b583b8f6b",
      "contractAddress": null
    },
    {
      "status": "0x1",
      "cumulativeGasUsed": "0xc7b3e",
      "logs": [
        {
          "address": "0x7f7f8833212158d50722dda49d2d794b583b8f6b",
          "topics": [
            "0xbdf25579e471a96dd718c178c51b0dbcaa735b650ddff2e3dab545d802c2b50a"
          ],
          "data": "0x00000000000000000000000000000000000000000000000000000000000000000000000000000000000000000000000000000000000000000000000000002710000000000000000000000000000000000000000000000000000000006682a3100000000000000000000000000000000000000000000000000000000000000080000000000000000000000000000000000000000000000000000000000000000a4f656c7765636873656c00000000000000000000000000000000000000000000",
          "blockHash": "0x19d45f6c265e6802244f4b2c1f174b62ba63a7aa378bcdf7cfaf12af04297b93",
          "blockNumber": "0x5f0b5",
          "transactionHash": "0xcef5e90100995541d39b006b636f4a5d3343a3a3aafecb7f9d5d994d85aaf52d",
          "transactionIndex": "0x5",
          "logIndex": "0x7",
          "removed": false
        }
      ],
      "logsBloom": "0x00000000000000000000000000000000000000000000000000000000000000000000000000000000000000000000000000000000000000000000000000000000000000000000000000000000000000000000000000000000000000000000000000000000000000000000000000004080000000000000000000000000000000000000000000000000000000000000000000000000000000020000000000000000000000000000000000000000000000000000000000000000000000000000000000008000000000000000000000000000000000000000000000000000000000000000101000000000000000000000000000000000000000000000000000000000",
      "type": "0x2",
      "transactionHash": "0xcef5e90100995541d39b006b636f4a5d3343a3a3aafecb7f9d5d994d85aaf52d",
      "transactionIndex": "0x5",
      "blockHash": "0x19d45f6c265e6802244f4b2c1f174b62ba63a7aa378bcdf7cfaf12af04297b93",
      "blockNumber": "0x5f0b5",
      "gasUsed": "0x1c802",
      "effectiveGasPrice": "0x12d0000009a01",
      "from": "0x63e42efbc0eab83cffc1a6fb3f6953f1c221eca1",
      "to": "0x7f7f8833212158d50722dda49d2d794b583b8f6b",
      "contractAddress": null
    },
    {
      "status": "0x1",
      "cumulativeGasUsed": "0xe4439",
      "logs": [
        {
          "address": "0x7f7f8833212158d50722dda49d2d794b583b8f6b",
          "topics": [
            "0xf9613dc0f5c71d67bb51788eca5744acffc77bf7110057fc41bc81fc2bca4d9b"
          ],
          "data": "0x00000000000000000000000000000000000000000000000000000000000000000000000000000000000000000000000000000000000000000000000000002ee0000000000000000000000000000000000000000000000000000000006682a3100000000000000000000000000000000000000000000000000000000000000080000000000000000000000000000000000000000000000000000000000000001b4b6c65696e657220556e66616c6c2068696e74656e206c696e6b730000000000",
          "blockHash": "0x19d45f6c265e6802244f4b2c1f174b62ba63a7aa378bcdf7cfaf12af04297b93",
          "blockNumber": "0x5f0b5",
          "transactionHash": "0xb1e932ebf5b61d252fc428bc865c6183d91ae209c5c1e63d151573a521c2825d",
          "transactionIndex": "0x6",
          "logIndex": "0x8",
          "removed": false
        }
      ],
      "logsBloom": "0x00000000000000000000000000000000000000000000000000000000000000000000000000000000000000000000000000000000000000000000000000000000000000000000000000000000000000040000000000000000000000000000000040000000000000000000000000000080000000000000000000000000000000000000000000000000000000000000000000000000000000000000000000000000000000000000000000000000000000000000000000000000000000000000000000008000000000000000000000000000000000000000000000000000000000000000001000000000000000000000000000000000004000000000000000000000",
      "type": "0x2",
      "transactionHash": "0xb1e932ebf5b61d252fc428bc865c6183d91ae209c5c1e63d151573a521c2825d",
      "transactionIndex": "0x6",
      "blockHash": "0x19d45f6c265e6802244f4b2c1f174b62ba63a7aa378bcdf7cfaf12af04297b93",
      "blockNumber": "0x5f0b5",
      "gasUsed": "0x1c8fb",
      "effectiveGasPrice": "0x12d0000009a01",
      "from": "0x63e42efbc0eab83cffc1a6fb3f6953f1c221eca1",
      "to": "0x7f7f8833212158d50722dda49d2d794b583b8f6b",
      "contractAddress": null
    }
  ],
  "libraries": [],
  "pending": [],
  "returns": {},
  "timestamp": 1719837587,
  "chain": 5167004,
  "commit": null
}